:100000000C9414030C9431030C944C030C943103A2
:100010000C9431030C9431030C9431030C94310390
:100020000C9431030C9431030C94D7270C943103B6
:100030000C9431030C9431030C9431030C94310370
:100040000C9431030C9431030C9431030C94310360
:100050000C943103000000000000000000000000CC
:100060000000000000000000000000000000000090
:1000700000000000000000007E0F00D4FFFFFFC75B
:100080000000007800000000000000002A2B28007B
:100090000000000000000000000000000000002937
:1000A000000000002C1E3420212224342627252E77
:1000B000362D3738271E1F202122232425263333AF
:1000C000362E37381F0405060708090A0B0C0D0EDB
:1000D0000F101112131415161718191A1B1C1D2FA7
:1000E0003130232D350405060708090A0B0C0D0EC7
:1000F0000F101112131415161718191A1B1C1D2F87
:100100003130354C00047F3F1F6432146432147860
:100110003C1E1E140A05FD377A585A000004E6D624
:10012000B4460200210116000000742FE5A3E0018F
:100130001D00AE5D003D8889C65436C3174FE4DE0E
:1001400079945D6E6DE58D0EF4ED971C8C808F407B
:10015000E60F23583CE960FFE09DAA76D9D13A67C3
:100160004D1BD36ECB1DB4B2242E9964E6AECBA347
:10017000D2A6C890C61743C30FCF17BE7A2B1D65F2
:1001800057010E015547FF8B222CFE083D0AC41A69
:100190001AB688F8B84AD805FCC0963A0A659B4852
:1001A0006956B3AE3C7015729A4558607598B503A0
:1001B0009FBD77A06234A70B2C6AEC7F0A7A4C4A69
:1001C00016F384EE3265C0104E6445240DF2E91436
:1001D0009B16A3E0EC701EE331A6A5851AB2516808
:1001E0007052E5000000FC07CC356B5EB1C3000126
:1001F000CA019E02000046825D10B1C467FB020086
:1002000000000004595A000101010101010101012E
:1002100002020202020202020203030303030303B7
:100220000304040404040404050505050506060684
:100230000606070707070708080808090909090A41
:100240000A0A0B0B0B0C0C0C0D0D0D0E0E0E0F0FE6
:100250000F10101111111212131314141515161674
:100260001717181819191A1A1B1B1C1D1D1E1E1FE3
:100270002020212222232424252626272829292A32
:100280002B2C2D2D2E2F303132323334353637385A
:10029000393A3B3C3D3E3F40414243444546474856
:1002A000494A4C4D4E4F50515354555658595A5B2C
:1002B0005D5E5F616264656668696B6C6D6F7072CC
:1002C000737577787A7B7D7E8082838587888A8C38
:1002D0008E8F91939596989A9C9EA0A2A3A5A7A96C
:1002E000ABADAFB1B3B5B7BABCBEC0C2C4C6C9CB63
:1002F000CDCFD1D4D6D8DBDDDFE2E4E7E9EBEEF019
:10030000F3F5F8FAFDFFFFAA7F55402223252628A2
:10031000292A2C2D2F3032333536383A3B3D3E409A
:1003200042434547494A4C4E5051535557595A5CE0
:100330005E6062646668696B6D6F71737577797BF7
:100340007D7F81838587898A8C8E90929496989AF6
:100350009C9E9FA1A3A5A7A8AAACAEAFB1B3B4B60B
:10036000B8B9BBBCBEBFC1C2C3C5C6C7C9CACBCC66
:10037000CDCED0D1D2D2D3D4D5D6D7D7D8D9D9DA39
:10038000DADBDBDBDCDCDCDCDCDDDDDDDDDCDCDCAE
:10039000DCDCDBDBDBDADAD9D9D8D7D7D6D5D4D3D6
:1003A000D2D2D1D0CECDCCCBCAC9C7C6C5C3C2C1AB
:1003B000BFBEBCBBB9B8B6B4B3B1AFAEACAAA8A708
:1003C000A5A3A19F9E9C9A98969492908E8C8A89C0
:1003D000878583817F7D7B79777573716F6D6B699D
:1003E00068666462605E5C5A5957555351504E4C72
:1003F0004A4947454342403E3D3B3A383635333221
:10040000302F2D2C2A292826252322AA00A90001D5
:1004100000010001000100010001003A003B003C26
:10042000003D003E003F00015140004100420043BA
:10043000004400450000001E001F00200021002293
:100440000023000100C25CC35CC45C010001000128
:1004500000000001000100DB027E13B01300000267
:10046000000200D7027E13B013000003000100DC7D
:10047000027E13B013000004000200C1027E13B01C
:1004800013630605000100DD027E13B013000006B1
:10049000000200C3027E13B013000007000200D95F
:1004A000027E13B013000008000100DE027E13B0CC
:1004B00013000012000200DF027E13B013000013CD
:1004C000000200E1027E13B013000014000100E3FB
:1004D000027E13B0130000150000000000E0054A82
:1004E00015000005010980A101850319012AB70043
:1004F000150126B700950175108100C0050C090192
:10050000A101850419012AA002150126A002950166
:1005100075108100C00660FF0961A1010962150024
:1005200026FF009520750881020963150026FF004B
:10053000952075089102C005010906A1010507195A
:10054000E029E715002501950875018102950175DF
:100550000881030507190029FF150026FF009506ED
:100560007508810005081901290595057501910295
:10057000950175039103C01C037600690061006C4E
:10058000003A006600360034006300320062003337
:10059000006300000008034600310032000000162E
:1005A00003680061006400690073007900610066FF
:1005B000006900710000000403090409025B0003E4
:1005C0000100A0320904000001030101000921011A
:1005D0000100012240000705810308000109040110
:1005E000000203000000092101010001222200078E
:1005F000058403080001070504030800010904023B
:10060000000103000000092101010001223200075E
:10061000058303080001120110010000000882296F
:10062000031001000102030111241FBECFE5D8E031
:10063000DEBFCDBF23E0A8EFB0E001C01D92AB3F0D
:10064000B207E1F710E0A0E6B0E0EEE6F1E602C0A6
:1006500005900D92A83FB107D9F70E94FB270C9493
:100660009B300C940000A82FB92F80E090E041E06F
:1006700050EA609530E009C02D91822797958795C3
:1006800010F084279527305EC8F36F5FA8F30895B4
:10069000EADF8D939D930895CF93CFB7CF93DF93E8
:1006A000C395839BE9F7839B10C0839B0EC0839BFC
:1006B0000CC0839B0AC0839B08C0839B06C0C0916B
:1006C000D503C395C093D5038EC06F93C091D40357
:1006D000DD27C752DC4F2F9365E5839B03C02F9125
:1006E0006F91E1CF0F931F934F9320E040E15F9311
:1006F00000B30C7003FB27F93F9350E03BE039C097
:100700001C7040642F77012F5F5F1EC0406810B3DC
:100710001C702F7752501FC0406400B32F770C70AD
:10072000D1F15F5F00C023C0406210B32F771C700F
:1007300091F15F5F00C025C00C701027515012F47A
:100740005D5F0000115027952C3F10B3C8F61C7058
:100750000127015027952C3FC8F64227499300B343
:100760000C7010274F73115027952C3FA8F6469513
:10077000469510B31C7079F00127015027952C3F46
:1007800098F66B5A60F3315000B3B0F600C010E831
:100790001ABF00271CC03B503195C31BD04010E846
:1007A0001ABF0881033C21F10B3411F12091D203CF
:1007B0001981110F1213EDCF4A81441F093679F1C7
:1007C0000D3211F0013E29F74F7009F0042F00930C
:1007D000D8033F915F914F911F910F912F916F918E
:1007E000CAB7C7FD5DCFDF91CF91CFBFCF9118952D
:1007F0002091D803222369F31091D603112309F025
:1008000049C034300AF448C03093D6032093D30350
:100810001091D4033BE0311B3093D4033DC00091D1
:10082000D6030130BCF50AE54F7049F430917F00E2
:1008300034FD33C000937F00CFEAD3E032C04330B1
:1008400059F0443091F03091BA0334FD26C0009342
:10085000BA03CBEBD3E025C03091EF0334FD1DC0CC
:100860000093EF03C0EFD3E01CC03091C60334FD0A
:1008700014C00093C603C7ECD3E013C0052710E0F3
:1008800000C0000002BB1AC0052710E0221F1DC0D7
:1008900010E021C04AE502C032ED432FC4E1D0E0B0
:1008A00032E011B31C60939A02B311BB5CE020E804
:1008B00065E320FF052702BB279517951C3FF0F63F
:1008C0006695B8F7B1F720FF052702BB2795179566
:1008D0001C3FD0F62795179517FF052700001C3FF2
:1008E00002BBB0F629913A9519F7037F1091D7030F
:1008F000110FC651D04002BB11F01093D20310E883
:100900001ABF086011B3137F402F437F54E05A95FC
:10091000F1F702BB11BB42BB5CCFFC01838183308A
:1009200089F130F48130F1F0823021F180E00895D6
:10093000813209F450C08232C9F7248135812130D7
:10094000310509F466C02115310509F45AC0223079
:10095000310561F783EE94E090938B0380938A03D3
:1009600082E3089586E196E090938B0380938A0357
:1009700082E108958BEB95E090938B0380938A033B
:100980008BE5089582818130B1F0882361F0823057
:10099000D1F0833059F687E795E090938B038093ED
:1009A0008A038CE1089587EB95E090938B03809305
:1009B0008A0384E008958FE995E090938B038093F8
:1009C0008A0386E1089585E995E090938B038093EF
:1009D0008A0388E008958281813081F0882331F094
:1009E000823009F0A3CF86E096E002C08DEC95E05E
:1009F00090938B0380938A0389E0089586EE95E0B7
:100A0000F7CF87E395E090938B0380938A0380E48C
:100A1000089525E135E030938B0320938A030895F0
:100A200008950895089580918503089588E198E0D8
:100A30000FB6F894A89581BD0FBE91BDA895F89406
:100A4000D8E0CEE528E3299320E0299314BEFFCF18
:100A500008959C014FB7F8948091EE029091EF02B7
:100A6000A091F002B091F1024FBF821B930B089549
:100A70002FB7F8948091EE029091EF02A091F002CE
:100A8000B091F1022FBF08959C01FC0132969FEFB7
:100A900080E04191461751F09F3F19F4411101C088
:100AA000982F8F5F8630A9F79F3F09F40895290F8B
:100AB000311D97FD3A95F901628308952091EC026A
:100AC0003091ED022817390771F09093ED02809371
:100AD000EC02E091EA02F091EB02309721F0008401
:100AE000F185E02D099408952091E8023091E90202
:100AF0002817390771F09093E9028093E802E0919A
:100B0000EA02F091EB02309721F00680F781E02DA8
:100B100009940895E091EA02F091EB02309721F0F8
:100B20000190F081E02D099480E00895452B39F083
:100B3000682381E06F3F09F080E08170089581E0D3
:100B4000FCCFDC016091BD028091BE02962F89131B
:100B500001C00895292F30E0F901EE0FFF1FEB547B
:100B6000FD4F408151814A175B07A1F487E08A9FBE
:100B7000A0018B9F500D112443585D4F81E0FA0175
:100B800084839613E6CF2F5F3F4F23703327209344
:100B9000BD0208952F5F3F4F922F9370D8CF1092D0
:100BA0001A0210921902EDE7F2E08581811102C06C
:100BB00014821682379682E0E53BF807B1F7089574
:100BC000AF92BF92CF92DF92EF92FF920F931F935B
:100BD000CF93DF938FEF9FEF4430510508F468C047
:100BE0004091F20141FB882780F990E0880F991F1E
:100BF00042FB002700F910E0000F111F000F111F2A
:100C0000802B912B40FBCC24C0F8D12C8C299D2922
:100C100043FB222720F9C22FE0E0DE2F53E0CC0F68
:100C2000DD1F5A95E1F78C2B9D2B44FBAA27A0F9D9
:100C3000B0E0E4E0AA0FBB1FEA95E1F78A2B9B2BFB
:100C400045FBEE27E0F9F0E0A5E0EE0FFF1FAA95C7
:100C5000E1F78E2B9F2B46FB222720F930E0B6E0F0
:100C6000220F331FBA95E1F7822B932B47FB2227E4
:100C700020F930E03695322F222737952795822BA1
:100C8000932B2091F301322F3170F32EF92A269500
:100C90002170B22EBB0CA82EBF28C501BB0CAA0B1D
:100CA000BB0BFB0180839183A283B38390E080E040
:100CB000DF91CF911F910F91FF90EF90DF90CF9038
:100CC000BF90AF9008958091C1029091C20290931D
:100CD0007B0080937A000895FA01811101C0FB0125
:100CE000099480919701982F9E7F29F481708260EA
:100CF0008093970108958A34E8F381708864F8CF6F
:100D0000AF92BF92DF92EF92FF920F931F93CF9318
:100D1000DF93082F162FE901E42FF0E0EA5FFD4F83
:100D2000611110C0E4915E2F4E2F4983E8835A83EE
:100D3000DF91CF911F910F91FF90EF90DF90BF90C7
:100D4000AF900895E62EF12C4491D42EE42FF0E0DC
:100D500026E0829FC00111242FEF30E0B9010E94EC
:100D6000762F802F90E0880F991F55E5569FD00170
:100D7000579FB00D11248A1B9B0B982F990F890F39
:100D80005901AE18BF08AE9ED001AF9EB00DBE9EF9
:100D9000B00D11245B2F189F80011124012F112702
:100DA0005901A01AB10AAE9E8001AF9E100DBE9EE1
:100DB000100D11245901A81AB108AE9CC001AF9CB6
:100DC000900DBE9C900D1124892F9927281B390B5B
:100DD0002E9FC0012F9F900D3E9F900D1124E92F53
:100DE00062307105A1F050F46115710509F49DCFD1
:100DF0006130710581F0EB2F512F97CF6430710571
:100E000069F080F06630710509F48FCFF4CFE42FDC
:100E10004B2F592F8ACFE42F412F87CFEB2F542F01
:100E2000492F83CF4B2F5D2DE12F7FCF80E0089599
:100E3000F894E82FE295EF70F0E031A9282F2F7099
:100E400081E090E001C0880F2A95EAF7982F9095ED
:100E5000932391AB92A9892B82AB789408959091BA
:100E6000F20192FF06C0282F28712830F9F4877FFD
:100E7000846093FF06C0282F28712831F1F4877E03
:100E800084612091F30120FF06C0382F387138307B
:100E9000D9F4877F816021FF06C0282F287128316F
:100EA000D1F4877E816194FD877E0895282F247177
:100EB0002430F9F68B7F8860DCCF282F2471243111
:100EC00001F78B7E8861DDCF382F3171313019F712
:100ED0008E7F8860E0CF282F2171213121F78E7E0F
:100EE0008861E1CFCF93DF93EC0182389105A9F1BE
:100EF000D8F58133910509F496C048F589329105FA
:100F000009F48AC08A9709F495C0C11522E5D20771
:100F100008F0B6C0C11531E5D30708F026C1C83EB8
:100F2000D10508F09CC0C03ED10560F5C83AD10596
:100F300008F087C0C53AD10508F0EFC0C130D1052F
:100F400009F12097F9F0C430D105E0F440C08533B1
:100F5000910509F45AC0C997C1F68091F2018370D6
:100F600089F0C0EED0E00EC0833E910599F170F497
:100F7000803E910501F1823E910539F68091F201A2
:100F800082FD21C0CE01DF91CF910895863E91056B
:100F900061F1873E910571F1843E910509F0B5CF6D
:100FA0008091F30181FFEECF8091F201C7EED0E096
:100FB00084FD0DC0E7CF8091F20180FD07C19091C3
:100FC000F30190FFDFCFC3EED0E084FFDBCFD0E0B2
:100FD000C0E0D8CF8091F20182FDFBC09091F30177
:100FE00090FDBFCF84FFCECFF2CF8091F20183FD81
:100FF000DDCFC8CF8091F20183FDEEC09091F30167
:1010000091FFF0CFC4EED0E0BDCF8091F20185FF1B
:10101000B9CFC9E2D0E0B6CF8091F20185FFB2CF5F
:10102000C5E3D0E0AFCF8091F20186FFABCFCAE23B
:10103000D0E0A8CF8091F20186FFA4CFC1E3D0E039
:10104000A1CFCF3BD10518F6C85AD0E0CC0FDD1F99
:10105000C557DF4F0990D881C02DD46493CFC115F7
:1010600040E5D40708F064C0C11580E4D80708F053
:101070005CC0CE019A9581159F4108F483CFA7CF1C
:10108000C11536E5D30718F5C11545E5D40708F0B5
:1010900084C0C11584E5D80708F07AC09C2F9695C6
:1010A00096959E0123703327C115D34508F462C07D
:1010B000C1E0D0E002C0CC0FDD1F2A95E2F730E29C
:1010C000939FC0011124C82BD92BDA685BCFC115BF
:1010D0008AE5D80778F4C11599E5D90708F068C002
:1010E000C11528E5D20708F472CFDC2FCC27C06FDA
:1010F000D06A48CFCE0190568115904208F067CF54
:101100008D2F8F710E942F0790E0982F88278827B6
:101110009F719C012C2BE90149C0C55AD0E0C857EA
:10112000DF4FC881D0E0D0642DCFDF70D06A2ACFE6
:10113000CE01E4E096958795EA95E1F783702C2F30
:1011400026952695237040E2249F90011124382B88
:101150008C2F8370C1E0D0E002C0CC0FDD1F8A95D8
:10116000E2F7C22BD32BDC680DCFDC2FCC27C16F6D
:10117000D06A08CFC1E0D0E002C0CC0FDD1F2A95B5
:10118000E2F720E2929FC0011124C82BD92BEBCFAC
:10119000DC2FCC27C46FD06AF5CE8C2F0E942F078E
:1011A000C82FD0E0DC2FCC27CC27DF71D062EACE6D
:1011B0008C2F8F700E942F0734E0D695C7953A95F3
:1011C000E1F7CF709C2FEC01D069DCCEC9E3D0E011
:1011D000D9CEC2EED0E0D6CEC6EED0E0D3CE80914E
:1011E0005B01882331F010925B0110925A0110923A
:1011F00059010895CF93C82F8091F30182FD0CC04F
:1012000080915B018C1741F00E94380590935A0140
:1012100080935901C0935B01CF910895809590917F
:10122000F40198239093F40108959091F401892B8F
:101230008093F40108951092580110925701109272
:10124000560108958091C3029091C402892B89F0C0
:101250000E9438052091590130915A01AC01421B7E
:10126000530B81E02091C3023091C402421753070F
:1012700008F480E0817008958091F4019091AE03AC
:10128000892B8093FA0080915B01882309F180917A
:10129000C3029091C402892B29F00E942209811176
:1012A0000E94EF088091FA0090915B01892B809356
:1012B000FA0020E08CEF90E0FC013191CF01311178
:1012C0002F5FF1E082309F07B9F721110E94EF08EC
:1012D000E091EA02F091EB02309731F00280F38165
:1012E000E02D8AEF90E00994089580917C00877F3B
:1012F00080937C009091AE039D7F9093AE0384FF1A
:1013000006C08F7E80937C0082E00E941509809148
:101310007C0085FF06C08F7D80937C0080E20E9468
:1013200015090C943C0980915501811110925501C9
:1013300008952091540190911301291302C080E077
:10134000089530E0F90153E0EE0FFF1F5A95E1F7E1
:10135000EC5EFE4F5181561306C05081581303C0F6
:101360005281541304C02F5F3F4F2770E6CF81E0B6
:1013700008958091540190911301981301C008952C
:101380008F5F8770FACF9E3F49F1E82F27E0929F49
:10139000E00D11249E2F9770E695E695E69583E083
:1013A000E89FF0011124EB5FFE4F50E040E080E049
:1013B000219130E0092E02C0369527950A94E2F774
:1013C00021703327042E01C0220F0A94EAF7822BE2
:1013D0004F5F5F4F4330510559F7089580E00895FE
:1013E0009E3F69F1E82F27E0929FE00D11248E2F98
:1013F000877041E001C0440F8A95EAF7E695E695CB
:10140000E69583E0E89FF0011124EB5FFE4F30E0AA
:1014100020E070E05191DF011197CB01022E02C054
:10142000969587950A94E2F78170819585278423A4
:1014300085278C932F5F3F4F2330310559F708954F
:1014400092959F70963091F058F4925F9F70923011
:1014500058F4803F19F030F4883E30F481E008956C
:101460009A5FF4CF843FD1F380E00895883EB0F3D3
:10147000813FD1F7F3CF90E080E00E94740590E0C7
:1014800080E00E945E051092AE030C943C098093AC
:10149000AD030C943B0A8091AD03982F9670963063
:1014A00019F488600C94470A877FFCCF21E030E074
:1014B00001C0220F8A95EAF720958091AD0382231F
:1014C0000C94470A90915801809589238093580184
:1014D000282F277091F4282F082E000C330B921719
:1014E000130659F09091F30192FD07C085958595FB
:1014F00085950E94560A0C941B09089521E030E05E
:1015000001C0220F8A95EAF78091AD03822B0C94DB
:10151000470A9091F30192FD10C098E0899F9001D5
:101520001124622B609358010E947E0A0E943805A4
:10153000909357018093560108950C947E0A8093EE
:10154000AC030C943B0A882341F080959091AE0344
:1015500089238093AE030C943C090895882339F0C5
:101560009091AE03982B9093AE030C943C09089590
:10157000882321F00E940E090C943C0908958823C9
:1015800021F00E9415090C943C090895882381F1EB
:101590009CEF980F913A78F4ECEFF0E022E031E024
:1015A0009191891303C0DF0111971C922E173F07F9
:1015B000B9F70C943C0990E2980F983050F487707A
:1015C00091E001C0990F8A95EAF7892F0E940E09D0
:1015D000F0CF9BE5980F933020F490E080E00C94DE
:1015E0007405885A873120F490E080E00C945E0501
:1015F0000895CF93C82F882309F44AC08CEF8C0F2D
:10160000813AF8F4ECEFF0E082E091E0DF012D9117
:10161000C21759F08A179B07D1F76C2F8AEF90E019
:101620000E944405CF910C943C092191C21303C040
:10163000DF0111971C928E179F07B9F70E943C0992
:10164000ECCF80E28C0F883048F4C77081E001C095
:10165000880FCA95EAF70E941509E4CFEBE5EC0F75
:10166000E33040F4F0E0E857FF4F808190E0CF9105
:101670000C947405C85AC73158F4EC2FF0E0EE0F03
:10168000FF1FE557FF4F80819181CF910C945E053C
:10169000CF9108959C013A9521153F4150F5FC01E9
:1016A000EE27F170BC0166277270AC0144275470BC
:1016B0009C012227387094FF0EC080E1EF2B09F4C3
:1016C00080E0672B09F08062452B09F08064232BB2
:1016D00089F08068089581E0EF2B09F480E0672BA2
:1016E00009F08260452B09F08460232B19F0886093
:1016F000089580E00895CF93DF93EC010E94C60A1D
:10170000CE010E944A0B9E01205E3109283031052E
:1017100010F0CD2B21F4DF91CF910C94B80ADF911A
:10172000CF910C94A30ACF93DF93EC010E944A0B54
:101730009E01205E31092830310510F0209739F4E0
:101740000E94BF0A8C2FDF91CF910C94F90A0E945E
:10175000AE0AF8CF662329F02091AE0322602093D1
:10176000AE039C013056211540E2340720F0305E74
:101770002115304108F499270C94930B019708F434
:101780000895EFE9FFE03197F1F700C00000F6CFD0
:10179000DF92EF92FF920F931F93CF93DF937C0121
:1017A0008B01D42E80917C0082FF8CC0C0911702E7
:1017B000D0911802CE15DF0521F0E114F10409F0F3
:1017C00081C080917C008B7F80937C0081FD73C001
:1017D0008091150290911602A801481B590B81E0D7
:1017E00020917A0030917B004217530708F480E083
:1017F0008170F82E80917C00F0FA81F980937C0052
:10180000FE0183E0F695E7958A95E1F7EE71FF27F3
:10181000EB50FE4F20813181AE014F70552781E0A2
:1018200090E002C0880F991F4A95E2F7FF2009F463
:1018300044C0822B932B918380838091F40181FF9C
:1018400008C080917C00806180937C0082E00E94CF
:101850000E098091F40185FF08C080917C008062B0
:1018600080937C0080E20E940E096F2DCE010E94C1
:10187000AA0BDD2031F08091DC0285FF02C086FFDB
:101880003BC08091DF029091E0020E94BE0B8091EC
:101890001702909118029C013056211540E234073E
:1018A00020F0305E2115304108F499270E947B0B0F
:1018B0000E9475091DC081E09BCF80959095822381
:1018C0009323B9CFC701992797013056211540E2DC
:1018D000340728F0305E2115304108F0C7010E941E
:1018E0007B0B80911702909118028E159F0501F3D2
:1018F0001093160200931502DF91CF911F910F9163
:10190000FF90EF90DF9008958091970180FD0AC0CD
:10191000E5E8F1E0118210821282339651E0E73956
:10192000F507C1F78E9A32B33F7B22B320644FB7DD
:10193000F89485E891E0FC015191CF0168E022BB69
:10194000000000C057FF32BB550F000000C000C0B0
:1019500000C032BB00C06A9591F7F1E087399F075C
:1019600051F74FBF8FE594E00197F1F700C00000F9
:101970000895EF92FF920F931F93CF93DF938C0103
:10198000C5E8D1E0F12CE12CF80194816091990136
:1019900080919801F3E0EF16F104FCF49923F9F03B
:1019A0009E0140919A010E9480062FEFE21AF20AEE
:1019B000239686E0E816F10439F70E94840CF801BA
:1019C000848190E00196817099278483DF91CF9183
:1019D0001F910F91FF90EF900895992309F39E01B5
:1019E00040E0E1CF8F929F92AF92BF92CF92DF9271
:1019F000EF92FF920F931F93CF93DF93EC014C81F3
:101A0000042F10E09801D8010E948C309B01AC019A
:101A10000E9457304B015C01E0E2F0E0E01BF10B6B
:101A2000A5E5B0E0AC019B010E9457306B017C0141
:101A30009F01DF010E94AB2F9B01AC010E9462302D
:101A40009B01AC01280D391D4A1D5B1DC701B60164
:101A50000E946A30F22E822F90E039E23F15D8F1D1
:101A600043E0249F9001112435952795122F10955E
:101A700095E8C92E91E0D92E00E085E5E82EEF1813
:101A80008E2D01FD8F2D9601412F609199010E94AD
:101A900080060F5F53E0C50ED11C063089F70E9407
:101AA000840C9C8181E0992319F0903219F48FEF16
:101AB0008093790080917900890F8C83DF91CF9199
:101AC0001F910F91FF90EF90DF90CF90BF90AF905C
:101AD0009F908F90089525E530E0A901481B590B90
:101AE000CA019A01220F331F280F391F37FFBCCFBD
:101AF0002F5F3F4FB9CF0F931F93CF93DF93C5E86D
:101B0000D1E0FE01118210821282339681E0E73922
:101B1000F807C1F710E000E080918301082E000C67
:101B2000990B081719078CF180917800082E000C8A
:101B3000990B801791074CF19E0140919A01609199
:101B40009901809198010E9480060F5F1F4F239694
:101B50000630110509F70E94840C8091770090915E
:101B60008301980F9093830120917800280F209390
:101B70007800121614F495301CF08195809377004C
:101B8000DF91CF911F910F910895198218821A82C7
:101B9000DCCFBF92CF92DF92EF92FF920F931F9311
:101BA000CF93DF93FC018281DD24DA9480FD02C0B3
:101BB000DD24D39405E811E0D0E0C0E026E0B22EA9
:101BC000F80111821082128294E0E92EF12CC12CCE
:101BD000809182018C0D87300CF43DC06B2D0E94EA
:101BE000682F892F082E000C990B8C179D0791F4F4
:101BF00080919A018E9DA0018F9D500D11245595C5
:101C00004795559547959801609199018091980164
:101C10000E948006CD0CF1E0EF1AF108C9F621967A
:101C20000D5F1F4FC630D10559F60E94840C80917C
:101C3000820191E0D91215C0811111C085E0809315
:101C40008201DF91CF911F910F91FF90EF90DF9074
:101C5000CF90BF90089587FFC5CF8A5FC3CF8150D3
:101C6000EECF90E00196BE010E948A2FE8CFEF925E
:101C7000FF921F93CF93DF93EC0185E8E82E81E07C
:101C8000F82E10E08C81970140919A0160919901A2
:101C9000810F0E948006165D83E0E80EF11C1C3F58
:101CA00089F70E94840C9A818C8190FF08C08F5F15
:101CB0008C83DF91CF911F91FF90EF900895815019
:101CC000F7CF9091970190FF0CC0E5E8F1E0818398
:101CD00060834283339691E0E739F907C1F70C94AA
:101CE000840C08950F931F93CF93DF9300D00F922E
:101CF000CDB7DEB78C018091840181110AC09E01AD
:101D00002F5F3F4F4FEF6FEF0E9480068A818093D5
:101D10008401F8016481613069F08091840140E0C0
:101D2000662361F040E0623011F44091840180E06C
:101D300060E004C06091840140E080E00E94610E98
:101D4000F801848190E0019663E070E00E948A2FA0
:101D500084830F900F900F90DF91CF911F910F917F
:101D60000895CF93DF9300D00F92CDB7DEB7909157
:101D7000970190FF0AC09E012F5F3F4F0E9480068F
:101D80004B8169818A810E94610E0F900F900F90A4
:101D9000DF91CF910895CF93DF93EC01E7E9F1E074
:101DA000438162818C810E94B10E8C818F5F8C8314
:101DB000DF91CF910895CF93DF93EC01EC81F0E0B8
:101DC000E55FFC4F4491E7E9F1E0628181810E9487
:101DD000B10E8C818F5F8C83DF91CF9108951F931B
:101DE000CF93DF93182FC091E102D091E2028933A3
:101DF00021F0C091DF02D091E002812F0E94F90A08
:101E0000209731F4812FDF91CF911F910C94C60A56
:101E10008FE99FE00197F1F700C000002197F0CF14
:101E20000F931F93CF93DF93C42FD22FFC01828196
:101E30008823A1F04093E7020E9438059093E602C0
:101E40008093E502C77081E001C0880FCA95EAF768
:101E5000DF91CF911F910F910C94BF0A1091E7026F
:101E6000141339C08091E5029091E6020E94290581
:101E70002091D9023091DA028217930760F5C0E20F
:101E8000CD0F1D17B9F080E2810F883040F4177034
:101E900081E001C0880F1A95EAF70E94B80AC8309D
:101EA00048F481E09D2F977001C0880F9A95EAF75A
:101EB0000E94BF0A802F0E94EF0EC83098F4D7709E
:101EC00081E001C0880FDA95EAF7DF91CF911F9189
:101ED0000F910C94B80AC77081E001C0880FCA95B1
:101EE000EAF7F3CFDF91CF911F910F910895AF9251
:101EF000BF92CF92DF92EF92FF920F931F93CF93F7
:101F0000DF93EC018AE0A82E2881222309F48CC0FB
:101F10002130C9F599818A81913021F422960E945D
:101F2000EF0E05C0923029F422960E94F90A2196FC
:101F3000EBCF933021F422960E94C60AF8CF94305A
:101F400011F02196F4CF229630E020E0AE014F5FF1
:101F50005F4F8053990B8A30910550F02150310921
:101F600030F38FE99FE00197F1F700C00000F6CF52
:101F7000A29EB001A39E700D11249C01260F371F55
:101F80008981EA01E3CFE22FF0E0EC57FF4FB490F4
:101F9000822F86958695869590E0FC01EC58FF4F40
:101FA000E4902770F12C022E02C0F594E7940A9475
:101FB000E2F731E0E322FF24FC01EC59FF4FC4902B
:101FC000D12C022E02C0D594C7940A94E2F731E0D6
:101FD000C322DD24FC01EC5AFF4F049110E002C043
:101FE000159507952A95E2F701701127E114F10480
:101FF00019F081EE0E94F90AC114D10419F086EE9D
:102000000E94F90A8B2D0E94EF0ECD2819F086EE62
:102010000E94C60AEF2819F081EE0E94C60A012B21
:1020200009F485CF8CE27BCFDF91CF911F910F9187
:10203000FF90EF90DF90CF90BF90AF900895CF9337
:10204000DF938091D603835087FD14C09091D40311
:10205000CCE0D0E0C91BD109C752DC4F9091D3032B
:10206000903108F06BC0883009F453C010927A03A5
:102070001092D60380917F0084FF3EC080917E0045
:102080008F3FD1F1C82F893008F0C8E0982F9C1BF2
:1020900090937E009091AF0328E892279093AF032E
:1020A0008823E9F080918A0390918B032091890322
:1020B00026FF06C1FC012C2FA0EBB3E034913D9329
:1020C00031962150D9F79C012F5F3F4F8FEF8C0F36
:1020D000820F932F911D90938B0380938A036C2F13
:1020E00080EB93E00E944803CC5FCC3019F08FEF77
:1020F00080937E00C0937F0084E190B39C7031F4A4
:102100008150D9F71092D7031092D203DF91CF916B
:10211000089580917A03893108F0A8CFE82FF0E084
:10212000E457FC4F9E01285F3F4F999191932C17E4
:102130003D07D9F7885F80937A039ACF9D3209F0E3
:10214000A3C0883009F094CF83EC8093AF038AE575
:1021500080937F00109289038881807609F447C0BC
:10216000803229F58981813099F48C819D81892B78
:10217000F1F48CE793E090938B0380938A0388E0DB
:102180009F81911131C09E81981770F5892F2CC0C5
:10219000823041F48BE793E090938B0380938A0322
:1021A00081E0EECF8A3029F48B8180937B0380E03D
:1021B000E7CF8930E1F78A819B818115924069F4EC
:1021C0008C819D81892B49F481E0809388038E81E5
:1021D0009F819093870380938603888187FF52C0F5
:1021E0008E8190E89093890380937E0041CF2A816D
:1021F0001092B803998191110AC01092B90328EB8B
:1022000033E082E030938B0320938A03B9CF95307B
:1022100029F42093D70328EB33E0F4CF9630C1F4B0
:102220009B81913049F4CE010E948D0490E49093FB
:1022300089038F3F91F2A4CF9230A9F3933099F3A1
:10224000913289F3923279F390E49093890398CF95
:10225000983089F0993019F420938403DCCF9A30B8
:1022600071F09B30C1F69BE49093BB039093F00315
:102270009093C703D0CF24E833E081E0C3CF28EBAD
:1022800033E0FBCF8FEFADCF8091890387FFF0CE96
:102290008091860390918703892B71F08091880348
:1022A000813051F4888180938503109287031092C6
:1022B000860310927E00DCCE8EE180937F00D8CE24
:1022C000DC012C2FE0EBF3E03D9131932150E1F75D
:1022D000FACE1F93CF93DF93E82F792F162FEA01C1
:1022E000888184FF1CC0298188E828272983CE01A2
:1022F0000296DC012E2F372F512F5E0FF90121910D
:102300002D939F01452F4E1B1416C4F3612F0E947D
:1023100048031C5F1883DF91CF911F9108958AE5D0
:102320008883E5CFCF93DF93CCE8D3E08091C603D9
:1023300084FF18C046EC53E068E0CE010E946911AA
:10234000289683E0CC3AD80789F78091C60384FFAA
:102350000CC046EC53E060E090E080E0DF91CF916C
:102360000C9469110E941F10E1CF0E941F10EDCF45
:1023700090917903981307C02091770330917803E7
:1023800026173707B9F08093790370937803609329
:102390007703809374037093760360937503809141
:1023A000EF0384FF07C04FEE53E063E084E793E060
:1023B0000C9469110895BC0184E00C94B811BC011F
:1023C00083E00C94B811CF93DF93CAE0D0E0809102
:1023D000BA0384FF1CC08091720390917303981715
:1023E00099F028E0829FC00111244AEB53E068E095
:1023F0008E509D4F0E9469118091720390E001966A
:102400008F70992780937203DF91CF9108950E9476
:102410001F108FE99FE00197F1F700C0000021979E
:10242000B1F6F2CFCF93DF93EC01A0917303B0E04C
:10243000CD0101968F70992720917203281779F0AA
:1024400093E0AA0FBB1F9A95E1F7AE50BD4F98E0FD
:10245000FE0101900D929A95E1F7809373030E941B
:102460001F100E94E31188E0FE01ACE7B3E0019089
:102470000D928A95E1F7DF91CF9108950F931F9305
:10248000CF93DF9301EC12E0C7EAD0E0CE010E94C7
:102490000930F80181938F012196CB3CD105B1F72A
:1024A000CDE5D4E0FE0185919491009711F0FC01F7
:1024B00009952C96F4E0CD3EDF07A1F7DF91CF918F
:1024C0001F910F9108950F931F93CF93DF93843043
:1024D00000F561111EC024E0829F8001112450E0AC
:1024E000440F551F040F151F09561F4FC8010E94A6
:1024F0000930C82FD0E0DC2FCC27C80101960E94FC
:1025000009309E01282BC901DF91CF911F910F91B6
:10251000089590E080E0F8CF0F931F93CF93DF935F
:10252000843030F5623020F5473010F5C42FD0E00C
:10253000CC0FDD1F2EE0629FC00DD11D11243CE1A8
:10254000839FC00DD11D1124CE0187960E940930B2
:10255000082F10E0102F0027CE0188960E94093026
:102560009801282BC901DF91CF911F910F910895F8
:1025700090E080E0F8CF462F2091F0013091F101FA
:10258000232B91F47E3F39F46E3F71F48091EE017C
:102590009091EF010895843038F4723028F4673058
:1025A00018F4672F0C948C1290E080E00895CF927D
:1025B000DF92FF920F931F93CF93DF936C010091F3
:1025C000AD038091AC03082BC7E0D0E010E0FC2EF7
:1025D000C8010C2E02C0959587950A94E2F780FDFC
:1025E0000CC02197A0F7F12C8F2DDF91CF911F9177
:1025F0000F91FF90DF90CF900895B6018C2F0E942D
:10260000BB120E947207019761F3EECFCF93DF9365
:10261000EC010E94D712BE010E94BB12DF91CF9144
:102620000C947207FC0186819781009721F00E942B
:1026300072070C94200A808191810E940613F9CFC1
:102640001F93CF93DF9300D000D00F92CDB7DEB7AA
:1026500049835A8389819A816623B9F02223A9F09C
:102660000E94D712182F682F89819A810E94F00941
:1026700069817A81812F0F900F900F900F900F90AA
:10268000DF91CF911F910C94BB120E94C309182FA8
:10269000EFCFFC01262F86819781009739F4408186
:1026A00051816281738184810C942013089583E2A7
:1026B00090E00E9409308B3189F484E290E00E941E
:1026C00009308B3659F485E290E00E94093091E0A0
:1026D0008D3609F090E0892F8170089580E0FCCF5D
:1026E000CF9384E090E00E940930C82F82E290E00E
:1026F0000E940930982F8C2FCF910895DB01FC01A7
:102700003296259134914217530758F0FC013496C4
:1027100065917491A901CD010E94E92F90E080E0BC
:1027200008958FEF9FEF08950F931F93CF93DF933B
:1027300001EC12E0C7EAD0E0CE010E940930F801B6
:1027400061918F01681719F0CE010E941D3021960A
:10275000CB3CD10589F7DF91CF911F910F9108955F
:10276000DA019C012E5F3F4FF90145915491F90127
:1027700025913491A217B30758F0FC013496859146
:1027800094910E94E92F0E94941390E080E00895B4
:102790008FEF9FEF0895CF93DF93CBE1D1E060E01F
:1027A000CE010E941D302196C11584E0D807B9F7EB
:1027B000DF91CF9108951F93CF93DF93122F843031
:1027C000D8F4611119C04230B8F494E0899FE00157
:1027D000112450E0440F551FC40FD51FC956DF4FB9
:1027E000632FCE010E941D30612FCE010196DF9133
:1027F000CF911F910C941D30DF91CF911F910895BF
:102800000F931F93CF93DF938901843048F5623093
:1028100038F5473028F521153C4531F42091EC017D
:102820003091ED01232BE1F0C42FD0E0CC0FDD1F60
:102830009EE0699FC00DD11D11249CE1899FC00DB0
:10284000D11D1124612FCE0187960E941D30602F6B
:10285000CE018896DF91CF911F910F910C941D307E
:10286000DF91CF911F910F910895CF93C82F6FEFF4
:1028700081116BE183E290E00E941D306FEFC11186
:102880006BE684E290E00E941D306FEFC1116DE6AF
:1028900085E290E0CF910C941D30CF93C92F682F23
:1028A00084E090E00E941D306C2F82E290E0CF9196
:1028B0000C941D309091F30192FB222720F92817E8
:1028C00069F080FB92F99093F3018091F20190916D
:1028D000F3010E944D1482E00C94620A0895109254
:1028E000F401ECEFF0E086E0DF011D928A95E9F754
:1028F0000C943B0AE1ECF2E0128E138E8FEA90E02A
:102900009183808385E0848F28E833E133832283B9
:1029100022E330E0378B268B28EC30E0318F208F9C
:10292000158E2AE030E0378F268F20E530E031A386
:1029300020A382A30E9494130E946F141092F301AB
:102940001092F20190E080E00E944D140C943E122F
:102950008F929F92AF92BF92CF92DF92EF92FF92AF
:102960000F931F93CF93DF93CDB7DEB72A970FB6A0
:10297000F894DEBF0FBECDBFC090EC01D090ED014A
:1029800081E090E09093ED018093EC018BE0E82EE4
:1029900084E0F82E9BE1A92E94E0B92E10E04501C9
:1029A00000E0F40125913491402F60E0812F0E94D6
:1029B0000014E2E08E0E911C0F5F073091F7450185
:1029C000FEE08F0E911C00E0F40125913491402F20
:1029D00061E0812F0E94001482E0880E911C0F5F3D
:1029E000073091F7F7012591349140E060E0812FA5
:1029F0000E94DB13F70132962591349141E060E0AB
:102A0000812F0E94DB1384E0E80EF11C1F5F9CE124
:102A1000A90EB11C143009F0C2CF0E947A14FE0135
:102A200031967F018AE011928A95E9F70BEC10E06C
:102A30004AE050E0B801C7010E944030065F1F4FD6
:102A40000B31F1E01F07A1F7D092ED01C092EC012C
:102A50002A960FB6F894DEBF0FBECDBFDF91CF919F
:102A60001F910F91FF90EF90DF90CF90BF90AF90AC
:102A70009F908F90089580E00E94351460E086E278
:102A800090E00E941D300E94A8140E94CB1381E0A8
:102A90000C943514CF92DF92EF92FF928FEF9FEF5D
:102AA0004430510508F46AC0FB01C080D180E28047
:102AB000F3800E946F148091F201C0FA80F9B7018F
:102AC000A601769567955795479540FB81F9B70123
:102AD000A60122E076956795579547952A95D1F7F7
:102AE00040FB82F9B701A60133E0769567955795CB
:102AF00047953A95D1F740FB83F9B701A601E4E089
:102B00007695679557954795EA95D1F740FB84F9F7
:102B1000B701A601F5E07695679557954795FA9523
:102B2000D1F740FB85F9B701A601A6E07695679538
:102B300057954795AA95D1F740FB86F9B701A601AD
:102B4000B7E07695679557954795BA95D1F740FBCD
:102B500087F98093F2018091F301D0FA80F9D1FADC
:102B6000CC24C0F8C0FA81F98093F3018091F2017E
:102B70009091F3010E944D1490E080E0FF90EF905F
:102B8000DF90CF900895CF92DF92EF92FF920F9354
:102B90001F93CF93DF93CDB7DEB72A970FB6F89484
:102BA000DEBF0FBECDBFECE9F1E080E5DF011D9295
:102BB0008A95E9F7EDE7F2E088E3DF011D928A9557
:102BC000E9F78CE9C82E81E0D82E7F010BEC10E0EC
:102BD000F701D182C0824AE050E0B801CE010196EF
:102BE0000E94F92F88E0FE013196D60101900D92E6
:102BF0008A95E1F789859A85D70113969C938E93E0
:102C00001297BAE0CB0ED11CE7E0EE0EF11C065F86
:102C10001F4F0B31F1E01F07D9F62A960FB6F89433
:102C2000DEBF0FBECDBFDF91CF911F910F91FF90FF
:102C3000EF90DF90CF900895CF92DF92EF92FF92C6
:102C40006B017C010E947106B701A60188E090E04B
:102C5000FF90EF90DF90CF900C942E305F926F92A8
:102C60007F928F929F92AF92BF92CF92DF92EF921C
:102C7000FF920F931F93CF93DF9300D00F92CDB7A6
:102C8000DEB7182F762E042F622E9091970190FFB9
:102C900029C0E92FE695AE2FB0E0AE52BF4F8C9120
:102CA000809380019E7F923081F59E012F5F3F4F80
:102CB000812F0E9480064B8169818A810E94610E6A
:102CC000109398017092990100939A01662051F037
:102CD00060919701709198018091990190919A016A
:102CE0000E941C160F900F900F90DF91CF911F91B3
:102CF0000F91FF90EF90DF90CF90BF90AF909F909B
:102D00008F907F906F905F900895823019F40091BA
:102D10009A01D6CF863019F410919801D1CF89301D
:102D2000D9F3893169F6E9518E2F8170582EE695D5
:102D3000F0E0EA5FFC4FA590B490BB2485E8E82E54
:102D400081E0F82ED12CC12C96E0892E912CC60161
:102D5000B4010E94762F812F511013C0860F970166
:102D6000402F672D0E948006CA0CDB1C83E0E80E12
:102D7000F11C87E9E81681E0F80649F70E94840C07
:102D80009FCF861BECCFE7E9F1E0438128E0421BAF
:102D900008F440E021E0628181810C942E16E7E97D
:102DA000F1E0438128E0420F08F44FEF21E0628117
:102DB00081810C942E16E7E9F1E0628128E0621B24
:102DC00008F460E021E0438181810C942E16E7E94C
:102DD000F1E0628128E0620F08F46FEF21E04381A7
:102DE00081810C942E16E7E9F1E0818121E0438195
:102DF000628188500C942E16E7E9F1E0818121E090
:102E000043816281885F0C942E1680919B018823F8
:102E100019F0815080939B01609197017091980106
:102E20008091990190919A010C941C1680919B01BC
:102E3000833018F48F5F80939B01609197017091AC
:102E400098018091990190919A010C941C1690918F
:102E5000970190FF3DC09170811129C092609093BD
:102E60009701662351F060919701709198018091CC
:102E7000990190919A010E941C16609197016695A4
:102E800070E04BE050E08CE690E00E94CF2F892B61
:102E9000A9F01092810181E080937D0120E04091B2
:102EA0009A0160919901809198010C942E168532B7
:102EB00010F09864D4CF880F982BD1CF81E0809305
:102EC00081010E94380590937B0180937A01E3CFC2
:102ED0000895809197018695815009F484E261E01C
:102EE0000C9427178091970186958F5F853208F0A3
:102EF00081E061E00C9427179091970190FF07C043
:102F00009695981720F0961710F40C94721761E0BC
:102F10000C942717E7E9F1E083E0808311828FEFBB
:102F200082838383148260817181828193810C9476
:102F30001C1669EE7EEF90E080E00E943A3060E07F
:102F400082E090E00E941D3060E083E090E00E940B
:102F50001D301092AC0360E084E090E00E941D30D0
:102F600060E082E290E00E941D3060E085E090E049
:102F70000E941D3060E086E090E00E941D306FEFFF
:102F800087E090E00E941D3040E050E0BA0188E008
:102F900090E00E942E3060E08DE090E00E941D30B5
:102FA00040E050E0BA0188E190E00E942E3060E0FD
:102FB00087E190E00E941D3040E050E0BA018CE1D2
:102FC00090E00E942E3070E060E080E290E00E948D
:102FD0003A3040E050E0BA0188E190E00E942E30A3
:102FE00080E00E9435140E943B1540E050E0BA0199
:102FF0008FE090E00E942E3040E050E0BA0183E183
:1030000090E00C942E309F92AF92BF92CF92DF92BD
:10301000EF92FF920F931F93CF93DF9300D000D0D6
:10302000CDB7DEB77C01FC01438154816181808191
:103030000E94960581112AC061E0C7010E944913D0
:103040008C01F7018281882309F46CC7C801825181
:103050009F45409708F001C78FEF93E00E94093029
:103060006EEED62ED00E0BE111E0882359F180913F
:103070005801877059F0F7018281882339F08091D7
:10308000F30182FD03C082E00E94620A0F900F905C
:103090000F900F90DF91CF911F910F91FF90EF90C4
:1030A000DF90CF90BF90AF909F9008950115F4E00E
:1030B0001F07E9F2C8010E940930811101C0DA94AA
:1030C0000F5F1F4FD110F2CF19821A821B821C8210
:1030D00099249A9468012FEFC21AD20AC8010E945B
:1030E000093089831A82882311F2813009F07BC06C
:1030F000580132E0A30EB11CC6010E940930C82E4F
:103100008A83882309F4B3CFC5010E940930D82EE1
:103110008FEF8C0D833068F4580143E0A40EB11C8E
:10312000DB82DD2021F0CE0101960E94770F850120
:10313000D1CF8BEF8C0D833070F5C8010396DB8205
:103140005C01DD20A1F3580154E0A50EB11C0E94E2
:1031500009308C83882359F30B811C8101308FEF58
:10316000180710F0102F002796E0C91681F0E7E04D
:10317000CE1649F0C8010E9497268091DF029091F7
:10318000E0020E94BE0BC8010E946826D0CFC80191
:103190000E949726CCCFF4E0CF12C9CF580124E08B
:1031A000A20EB11CC80103960E940930DD2009F46B
:1031B0005ECF882309F45BCF8150990B989E9001D4
:1031C000999E300D11244D2D4150550BCA01820F8F
:1031D000931F019708F4ABCFEFE9FFE03197F1F7C8
:1031E00000C00000F6CFCE0101960E94770F560175
:1031F0009ECF81E00E947E0A0E944B0A38CF81E078
:103200000E94560AF9CF82E0F5CF80917C00816060
:1032100080937C0059C680917C008E7F80937C00D7
:103220000E94750951C680917C008F7E013E110578
:1032300031F0053E1105C1F480917C008F7D8093B3
:103240007C0080917C0080FF4EC6F70182810832AD
:10325000110528F50E31110508F074C00430110570
:1032600080F581113CC63FC6C80190568115E0E249
:103270009E0720F0905E8115904118F780917C00A8
:1032800082FF31C68091DE0281FD2DC625E631E048
:1032900040E0B60190E080E00E94C80B24C60933EC
:1032A000110558F40D32110518F40B321105C9F649
:1032B0009091DC0292FDD5CF08C004361105C1F310
:1032C000D0CF9091DC0294FDCCCF882309F4A1C02B
:1032D0009091F40180915B01282F292B322F3D7FA3
:1032E000B1F110921802109217023091DC0231FDF8
:1032F0002EC0F80143E0F695E7954A95E1F7EE71A7
:10330000FF27EB50FE4F98012F70332781E090E0AC
:1033100002C0880F991F2A95E2F780959095208129
:103320003181822393239183808360E0C8010E94CE
:10333000AA0B80915B018D7F0E94FA0882E00E94B7
:10334000620A95CE9091DC0293FD8BCFBECF38E020
:10335000F701A5E6B1E001900D923A95E1F71092E0
:1033600067011092690110926801A0901702B09055
:1033700018020A151B05B1F53091DC0235FF32C089
:1033800040917C0041FB992490F841FF02C036FF38
:1033900029C04091150250911602B601641B750BAD
:1033A0004091D9025091DA0264177507D8F491FF61
:1033B00008C080917C00806180937C0082E00E9444
:1033C0000E098091F40185FF08C080917C00806225
:1033D00080937C0080E20E940E09692DC5010E9445
:1033E000AA0B45CE90917C0021FB91F990937C0033
:1033F0008D7F0E94FA081093180200931702D09252
:103400001602C092150280917C00846080937C003B
:1034100095CF970140E0B601C8010E94C80B27CEA6
:10342000053F8CE5180709F45EC008F456C0063F56
:10343000ECE51E0709F45DC0F7013281332309F47E
:103440007DC51092E7020330FDE51F0708F05DC05F
:103450000A3F2CE5120730F4C80182509C4544977E
:1034600008F05DC00E9470139093F3018093F20105
:1034700001318CE5180709F449C108F0C2C00930D0
:10348000ECE51E0709F430C108F091C005302CE5C9
:10349000120709F421C108F077C003304CE5140786
:1034A00009F412C108F014C102301C4509F406C128
:1034B0008091F2019091F3010E944D140E946F14CB
:1034C000D6CD07E225EE45EE68ED7CE527C506E2A0
:1034D00021EE40EE63EF7CE521C507E225EE44EEE8
:1034E00064EF7CE51BC506E221EE42EE65EF7CE56C
:1034F00015C507E225EE46EE66EF7CE50FC508E24E
:1035000021E045EE69ED7CE509C501364DE514077E
:1035100009F4A8CF053A5DE5150709F4A3CF0631F4
:103520009CE5190709F0F8C18091F401982F9A7A67
:103530002091DB0220FF04C0482F447409F090E082
:1035400021FF04C0482F417109F090E022FF04C020
:10355000482F487809F090E023FF03C0827209F0F9
:1035600090E0332309F4FCC081E0911101C080E0B8
:103570008093020169E2911165E38AEF90E00E9475
:1035800044050E943C0973CD8091F20180620730AE
:103590009CE5190709F495C08091F201806108301B
:1035A0001C4508F48EC08091F20180648AC080912D
:1035B000F2018B7F0D30FCE51F0709F482C098F4FF
:1035C0008091F2018E7F0B303CE5130709F479C03E
:1035D0008091F2018C600C301C4508F472C080911F
:1035E000F2018D7F6EC08091F2018F7E0F305CE51D
:1035F000150709F466C008F47DC08091F2018F7D43
:1036000060C00D3F9CE5190709F47CC050F50531F9
:10361000FCE51F0709F484C098F48091F201837FD0
:1036200003313CE5130709F44CC008F473C00E9451
:103630006F149091F201892F97FB87F9805841C050
:103640000B3F5CE5150709F44BC008F057C08091AB
:10365000F30181600A3F1C4509F02ACF8093F301F2
:1036600027CF0130EDE51E0709F466C0B8F480915C
:10367000F3018C7F0F3F2CE5120781F38091F3015A
:10368000836001151D4550F38091F301982F9095AB
:1036900091708E7F892B90FB81F9E0CF01364DE54B
:1036A000140709F44FC0053A5DE5150709F451C048
:1036B00002301D4509F0FCCE60E03FC08091F20170
:1036C00081608093F201F4CE8091F2018260F9CFA3
:1036D0008091F2018460F5CF8091F2018860F1CF92
:1036E0008091F3018260BACF0E946F148091F20141
:1036F0008068E7CF8091F201877FE3CF8091F3016B
:103700008E7FACCF8091F3018D7FA8CF8091F201A5
:103710008F7BD7CF0E946F148091F2018F77D1CF2A
:103720008091F20182FB992790F921E0922790FB8A
:1037300082F990FB83F9C5CF61E08EE090E00E94B2
:103740001D30B6CE9091F201892F8F7E94FF80615B
:10375000B8CF9091F201892F8E7F90FF8160B1CF19
:103760008091020181110FC089E2ECEFF0E022E0CC
:1037700031E09191891303C0DF0111971C922E173C
:103780003F07B9F7FECE85E3F0CF043C9CE519076F
:1037900009F48FC043EF56E16CEF76E1053C1C4520
:1037A00009F0EDC30E946C0662CC093CFCE51F07E2
:1037B00009F48EC070F4073C3CE5130709F483C09C
:1037C000083C1C4509F0DBC347EE56E16BED76E1A2
:1037D000E9CF0A3C5CE5150709F47FC045E057E1F5
:1037E00066E177E10B3C1C45E9F2C9C3013DECE51C
:1037F0001E0709F485C0A8F40E3C2CE5120709F455
:1038000079C008F474C00F3C4CE5140709F475C086
:103810006EE089E0003D1C4509F0B1C30E947C17B1
:1038200026CC043D8CE5180709F470C070F4023D05
:10383000ECE51E0709F467C061E088E1033D1C4523
:1038400009F09DC30E94271712CC053D2CE51207F5
:1038500009F45FC00D351D4509F409CC90C3809172
:10386000970180FF1BC08E7F809397016091970125
:10387000709198018091990190919A010E941C1673
:10388000109281014FEF50E782E04150504080405C
:10389000E1F700C000000E94840CE9CB81608093B6
:1038A000970161E08695CECF49E657E162E777E17F
:1038B00079CF42E757E169E677E174CF4CEF56E103
:1038C00063EF76E16FCF4BED56E167EE76E16ACFBD
:1038D00043EC56E16FEC76E165CF4FEC56E163ECDB
:1038E00076E160CF46E157E165E077E15BCF61E0EB
:1038F00081E0A8CF65E082E091CF68E086E08ECFDE
:1039000064E18FE08BCF67E185E188CF62E289E1F6
:1039100085CF61E083E296CF0A359DE5190761F115
:1039200058F40115FCE51F07C9F00E3D1C4509F0D0
:1039300026C30E9499179BCB0B353DE51307F1F089
:103940000C351D4509F01BC38091F30182FB8827CC
:1039500080F991E089270E945A1411C30E946F14C4
:103960005FEF84E39CE0515080409040E1F700C05D
:1039700000000E9416057BCB81E0EDCF80E0EBCF0D
:10398000828100811181882369F0C8010E94D712C9
:10399000D82E682FC8010E94F009B8018D2D0E9411
:1039A000BB12F3C2C8010E94C309D82EF6CF202F44
:1039B0002F70B22E802F807F19F0B29490EFB92231
:1039C000CC20A9F0BB2059F080E2810F883010F0A4
:1039D000111107C08B2D0E9415090E943C09812FEF
:1039E00056C08091AE03B82AB092AE03F6CF812FB5
:1039F0000E94C60ABB2009F44CC080E2810F8830C7
:103A000010F0111104C08B2D0E940E0906C0B09455
:103A10008091AE03B822B092AE030E943C0939C037
:103A2000302F3F70B32E802F807F803219F0B294F8
:103A300080EFB8221123E9F0113009F49CC0CC20AA
:103A400009F4A5C0DD2009F475C020E0F70140812C
:103A500051816281738184810E9420138091DE02F2
:103A600081FDBDCFF701858180FFB9CF8F70858340
:103A700061C08091F30182FF3FC0CC20B9F1BB202F
:103A800029F08B2D0E9415090E943C0980E00E94BC
:103A9000F90AE92DE850FF0B349710F40E948A05CB
:103AA000812F902F0E94200A8111B8C11092040129
:103AB00010920301AA20A9F08091580180FD11C045
:103AC000F70112828595859585950E947E0AC7012A
:103AD0000E940318809158018595859585950E94CF
:103AE000560A60E0C7010E944913D0CA80E00E94D4
:103AF000C60ABB2071F287CFCC2001F1D11004C0DF
:103B000080915B018B2917C041E0D41206C08091DF
:103B10005B018B290E94FA08BCCF8091DD028230C4
:103B200078F3D812EDCF0E94EF0880915501B812BA
:103B3000B09255018B2D0E94BF0AABCFD11006C0A9
:103B40000E94EF088B2D0E94B80AA3CF8091DD025E
:103B500051E0D5120BC0823008F49BCF8091F40164
:103B60008B2109F496CF0E949309EACF823040F36B
:103B7000D812E6CF8ECF8091E302CC2021F08D15B4
:103B800008F487CFD7CFD81608F083CFDBCFDD205E
:103B9000C9F28091E1029091E202193321F0809103
:103BA000DF029091E0020E94BE0B812F0E94C60AA4
:103BB00070CF802F86958695837069F0813009F0EB
:103BC00068CF812F902F9370C11002C090E080E0E9
:103BD0000E945E055ECF812F902F9370C11002C0AE
:103BE00090E080E00E94740554CF802F837091F59F
:103BF000C1104FCF412F429546954770440F440F57
:103C0000812F8F70042E01C0880F0A94EAF7212FAC
:103C1000207114FF07C02FE030E001C0220F4A9549
:103C2000EAF72095302F369536953370323069F0AB
:103C300050F44091AC03313029F0822B84230E9450
:103C40009F0A27CF842B822BFACF282B8091AC039D
:103C50008227F5CF8695CC2011F0802F81708823A4
:103C600009F417CF412F429546954770440F440FF2
:103C7000812F8F70042E01C0880F0A94EAF7212F3C
:103C8000207114FF07C02FE030E001C0220F4A95D9
:103C9000EAF72095302F369536953370323069F03B
:103CA00050F44091AD03313029F0822B84230E94DF
:103CB000470AEFCE842B822BFACF282B8091AD03BD
:103CC0008227F5CFF02FFF70BF2ECC2029F08F2F49
:103CD0000E947E0A812F2FCF812F0E94B80A8B2D40
:103CE0000E94560AD6CE123F89F160F4103FB9F017
:103CF000113F81F0CC2009F48CC0D11070CE802F00
:103D00008F7128C0133F49F1143FA1F78091F3014F
:103D100082FF2FC0802F8F71CC2011F31BC08091A8
:103D2000E302CC2079F0D81608F0B3CE202F2F7103
:103D300081E090E001C0880F2A95EAF79091AD03E9
:103D40008927B5CF8D1508F4A4CEF0CF802F8F71C1
:103D5000C110C6CF0E947E0A9CCE80E0CC2009F420
:103D6000A6CF81E0902F9F7101C0880F9A95EAF746
:103D70009ECF8091DD028230A0F180915501CC2050
:103D8000F1F00E940E09809158018770843041F44F
:103D90000E941B09802F8F710E94560AA12C79CE98
:103DA0008091DD02D816D0F7202F2F71B22E822FEE
:103DB0000E947E0A63E08B2D0E94890AEFCF0E9449
:103DC00015098091DD02D81640F00E941B090E945F
:103DD000930964E0802F8F71EFCF81E00E94620A27
:103DE000DDCFCC2059F0302F3F71B32E832F0E94AE
:103DF0007E0A63E08B2D0E94890A4BCE81E00E94EF
:103E0000620A41E04D1508F044CE82E00E94620A49
:103E100040CED110BECE802F8F7162CFCC2019F052
:103E2000D11044CE47CED11041CE20E0F7014081E1
:103E300051816281738184810E9420138091DE020E
:103E400083FF34CE8091030190910401029709F021
:103E50002DCE812F0E94EF0E29CE0031FFE51F07E6
:103E600009F4C7C901312FE5120709F4CCC98091C3
:103E7000DC0280FF38C00E9438056C01F7018281A6
:103E8000882309F4D0C980917C0082FF08C025E610
:103E900031E040E0B60190E080E00E94C80B0B31B9
:103EA000FCE51F0709F4B1C90C312CE5120709F430
:103EB000B2C990917C00892F8E7F90FF81600A317A
:103EC0003CE5130709F4AAC9C8019056811540E2E0
:103ED000940728F0905E8115904108F0B2C91092C5
:103EE000180210921702033FFCE51F0709F4EFCAFE
:103EF00008F096CA083D3CE5130709F4E2CA093DFB
:103F00004CE5140709F4FBCA073D5CE5150709F009
:103F100093CA06E221EE41EE67ED7CE5C7010E94FF
:103F2000100FA5C800313FE5130709F468C9013136
:103F30004FE5140709F09BCF82E062C906315CE5CA
:103F4000150709F4F1CA8091F40182720C3CECE58A
:103F50001E0709F4C7CC08F049CC063C2CE5120733
:103F600009F4ACCC08F021CC033C4CE5140709F46F
:103F70009BCC08F00ACC023C1C4509F470CCF7013C
:103F800086819781009709F4FBCC0E947207182F55
:103F9000092FF701C280D580D2943FE0D3228091CF
:103FA00058018770C1F0AC2CCC20B1F0892F807FF4
:103FB000803421F080E2810F883068F08091F30135
:103FC00082FD09C082E00E94620A809158018770D8
:103FD000AA24A3948111A12C902E92942FE09222D6
:103FE000FBE0F91508F455CDE92DF0E0E356FF4C60
:103FF0000C949E2FCF92DF92EF92FF920F931F931C
:10400000CF93DF9380911001807F31F480910D0177
:10401000C091540181110BC0DF91CF911F910F917D
:10402000FF90EF90DF90CF9008952196C770809118
:1040300013018C1789F3F0900B01E0900C01C090F4
:104040000E01D0900F01A6016E2D8F2D0E949605B6
:10405000D0E08111EACF8E0183E0000F111F8A9515
:10406000E1F7F801EC5EFE4F81818E11DECF808199
:104070008F11DBCF82818111D8CFE380F480EC18DF
:10408000FD0860E08BE091E00E9449138091D90225
:104090009091DA02E816F90640F6809110018F70CF
:1040A000806180931001F801E75EFE4F80818F7080
:1040B000806180838BE091E00E940318DF91CF91B3
:1040C0001F910F91FF90EF90DF90CF900C94B90962
:1040D0003F924F925F926F927F928F929F92AF9298
:1040E000BF92CF92DF92EF92FF920F931F93CF93E5
:1040F000DF93CDB7DEB765970FB6F894DEBF0FBE7E
:10410000CDBF8C0185E0F801DE01519601900D9242
:104110008A95E1F7D8014C9011965C901197129610
:10412000EC9012971396CD90DC9060E08BE091E0DC
:104130000E9449138BE0A82E81E0B82E80900E01DA
:1041400090900F01A40160910C0180910B010E94DD
:1041500096058111CAC1F0900D01F601E819F9091F
:104160004F0160E0FF2009F46DC1C5010E944913B1
:104170006090D9027090DA02309010018614970492
:1041800008F013C140910E0150910F01B0900B0146
:10419000A0900C01832D807F6A2D09F0ADC08B2D7E
:1041A0000E949605FE2C81113BC0D80111968C917E
:1041B00011978A1135C08C918B1132C02091110159
:1041C0003091120116968D919C912817390741F56F
:1041D000E11026C0832D8F708061809310018BE0E9
:1041E00091E00E94031880911001F80185838F2DC2
:1041F00065960FB6F894DEBF0FBECDBFDF91CF91AD
:104200001F910F91FF90EF90DF90CF90BF90AF90F4
:104210009F908F907F906F905F904F903F90089508
:10422000F4EF6F16F1E07F0620F48091DE0280FF4C
:1042300021C0A601652D842D0E949605811118C00C
:1042400081E08E2580FF16C04E2D652D842D0E94A5
:104250009909882379F08BE091E00E94031888E0A7
:10426000EBE0F1E0DF011D928A95E9F7F12CBFCF79
:1042700080E0E8CFA601652D842D0E94960581116E
:1042800024C081E08E25B82FB170CB2E80FF2BC0CB
:104290004E2D652D842D0E949909D82E811123C0A1
:1042A000498A5A8A89899A890E940613292F229558
:1042B0002F70223060F0243088F49F7061F0F80194
:1042C0009581907F41F4FD2C92CF80E0DCCF9F70F0
:1042D00011F08823C1F3805E8830A8F3C8010E94E2
:1042E0000318DC2CF0CFEE2009F481CF809110016F
:1042F000816080931001BACF8B2D0E9496058111A9
:1043000024C0D80111968C9111978A111EC08C91EE
:104310008B111BC0209111013091120116968D91C5
:104320009C9117972817390781F4E1100EC0159654
:104330003C92C8010E94031888E0F801ABE0B1E0AC
:1043400001900D928A95E1F752CFC8010E94121395
:10435000882339F1EE2029F1809110018032A0F0FC
:1043600020910B0130910C013A8729871B86DD864D
:10437000CC868E878091110190911201988B8F8746
:10438000CE0109960E94031888E0F801ABE0B1E085
:1043900001900D928A95E1F70E94FA1FFF24F39491
:1043A00026CFC8010E940318F9CF832D807F09F41E
:1043B00052CF90900B0180900C0140910E015091D2
:1043C0000F01682D892D0E94960581111CC0F801EE
:1043D0008181881118C08081891115C02091110137
:1043E00030911201868197812817390761F4E11015
:1043F0000AC03582C8010E94031888E0D5011D92C9
:104400008A95E9F7F4CEC8010E941213882349F275
:10441000EE2039F280911001803208F4B5CF20915E
:104420000B0130910C013A8329831B82DD82CC82FF
:104430008E83809111019091120198878F83CE0114
:104440000196A0CF8BE091E00E9449138091D902A0
:104450009091DA028816990680F6FE2CEE2009F477
:10446000A0CFE0900B01D0900C0140910E01509133
:104470000F016D2D8E2D0E949605811128C0F80127
:1044800081818D1124C080818E1121C02091110164
:10449000309112018681978128173907C1F48091E4
:1044A000DE0282FD49CF9091100190FD45CF907FB3
:1044B00009F442CF809110018583903F09F439CFF0
:1044C000982F907F905F8F70892B858332CFC801A2
:1044D0000E941213811158CF809110018160809346
:1044E0001001C8010E94031882CEEE2009F459CFB2
:1044F000C8010E941213F82E882309F452CF88E0D5
:10450000F801ABE0B1E001900D928A95E1F780915E
:104510000B0190910C010E9406130E94FA1F67CEB6
:10452000CF93DF93CDB7DEB760970FB6F894DEBFB9
:104530000FBECDBF29873A874B875C876D877E8703
:104540008F87988BCE0109960E94682081112FC019
:1045500088E0FE013996DE01119601900D928A9550
:10456000E1F74C855D856A8589850E9496058111F4
:104570001EC0A0911301B0E0CD010196877099276C
:10458000209154012817190609F193E0AA0FBB1FC7
:104590009A95E1F7AC5EBE4F98E0FE01319601902E
:1045A0000D929A95E1F7809313010E94B9098091C9
:1045B000540190911301891317C060960FB6F894B7
:1045C000DEBF0FBECDBFDF91CF9108950E946F1463
:1045D000109213011092540188E0EBE0F1E0DF014A
:1045E0001D928A95E9F7E3CFB8E08B9FC0011124B3
:1045F0008C5E9E4F0E9468208823F9F280915401BE
:1046000090E001968770992780935401D0CFEF9264
:10461000FF920F931F93CF93DF9380911C02882307
:1046200061F0C0911B028CE0F82E80911C02C8172B
:1046300058F010921C0210921B02DF91CF911F9133
:104640000F91FF90EF900895EE24E394EC0EE0922A
:104650001B020C2F10E0CF9DE0011124C35EDD4F43
:104660004B815C81698188810E94960581111DC002
:104670008E819F81892B21F488859985019651F43B
:10468000288139814A815B816C817D818E819F8106
:104690000E949022F09EF001F19EF00D1124E35E45
:1046A000FD4F148213821092AE03CE2DBECF109216
:1046B000C0021092BF0210927D008091BE028093D2
:1046C000BD020E94CF050C9407233F924F925F9248
:1046D0006F927F928F929F92AF92BF92CF92DF9212
:1046E000EF92FF920F931F93CF93DF93C091BD0280
:1046F00097E0892E01E010E02CE0322E3EEF932E61
:10470000442443948091BE028C1315C00E94072359
:10471000DF91CF911F910F91FF90EF90DF90CF909D
:10472000BF90AF909F908F907F906F905F904F90D1
:104730003F900C94CF05D0E0FE01EE0FFF1FEB542D
:10474000FD4F80819181889ED001899EB00D1124FA
:10475000A358BD4F14962C911497211157C0509017
:104760001C02EDE1F2E030E020E0712C5D01251546
:1047700008F04AC0E284F384D501CD90DC906FEF5D
:104780007FEF612C462D50E0DA01AA0FBB1FAC0D64
:10479000BD1D0D90BC91A02D109731F0EA16FB06BF
:1047A00009F4BA016394EECF6F3F7607A1F1D80107
:1047B00002C0AA0FBB1F6A95E2F77A2AB80102C0AD
:1047C000660F771F6A94E2F7AB01415051097416E6
:1047D0001506F9F4329EF001339EF00D1124E35ECC
:1047E000FD4F889ED001899EB00D1124A358BD4F66
:1047F00012962D913C911397378326839082918254
:104800009187808715964C920E94A1052196C370CE
:1048100079CF148213822F5F3F4F3C96A8CF2F92FF
:104820003F924F925F926F927F928F929F92AF9240
:10483000BF92CF92DF92EF92FF920F931F93CF938D
:10484000DF93CDB7DEB769970FB6F894DEBF0FBE22
:10485000CDBF942F498B252F5A8B6B8B7C8B8D8BE7
:104860004C895D89622F892F0E949605811109C0AC
:10487000809103019091040101969093040180932B
:1048800003018B8981111092AE031D861E861F863F
:10489000188A85E0FE017196DE01199601900D924D
:1048A0008A95E1F78091F30182FD1EC08091C302D9
:1048B0009091C402892BC1F00E94380520915601C5
:1048C00030915701821B930B2091C3023091C40297
:1048D0008217930720F08091580182FFF5C10E9452
:1048E000220981110E94EF084C855D856A858985C2
:1048F0000E949605811111C061E0CE0109960E94C7
:1049000049136C018B8527EFC2162CE5D20681F482
:10491000882321F181E080937D0029853A854B85AC
:104920005C856D857E858F8598890E949022C5C0A3
:1049300038EFC3163CE5D30629F4882379F00E94AA
:104940005723EBCF49EFC4164CE5D40639F488233E
:1049500029F080917D008111F2CFDCCF0DE712E0CC
:10496000512CB12CA12C22242394312C2EEF422E39
:10497000F8014081518188248A94982C20E0822F6C
:1049800090E0FC01EE0FFF1FE40FF51F60817181C5
:104990006115710531F0C616D70609F44C012F5F79
:1049A000EECFF12CFFEF8F169F0609F448C0F801F7
:1049B0004481F0907D008F2D411180E0F82FF1703F
:1049C000FF2EF801E58086819B85992309F40CC1AF
:1049D000FF2009F409C16090D7027090D802E1105D
:1049E00012C0A10101C0440F8A94EAF7842B868388
:1049F0008091190290911A028615970520F4709201
:104A00001A0260921902C10102C0880F991F2A95EB
:104A1000E2F70197F80126812817190681F48091A1
:104A2000BF029091C002009709F460C00E9429055E
:104A30006816790608F05AC021E0F80124835F283F
:104A4000FFEFAF1ABF0A095F1F4F28E0A216B1049B
:104A500009F08ECF8B85882309F421C1552009F4F4
:104A60001EC10E9438059093C0028093BF028091BE
:104A70001C02883010F591E0980F90931C0298E08A
:104A8000FE013996DE01119601900D929A95E1F79B
:104A90003CE0839FC0011124835E9D4F28E0FE010E
:104AA0003196DC0101900D922A95E1F72FEF3FEF4F
:104AB000FC0131872087D386C28669960FB6F894A9
:104AC000DEBF0FBECDBFDF91CF911F910F91FF9041
:104AD000EF90DF90CF90BF90AF909F908F907F909E
:104AE0006F905F904F903F902F9008958091BD02FE
:104AF0005091BE02982FF0E0E0E0851314C090932F
:104B0000BD02E017F10709F49ACF90E0FC01EE0F27
:104B1000FF1FEB54FD4FB182A0820196837099274D
:104B20008093BE028CCF682E712CF301EE0FFF1F15
:104B3000EB54FD4F2081318147E0429FD001439FDC
:104B4000B00D1124A358BD4F6D917C911197798FB1
:104B5000688F40E020E030E0E32FF0E0EE0FFF1F31
:104B6000688D798DE60FF71F808091808114910404
:104B7000E1F0F8010190F081E02DFF8BEE8B20E059
:104B800005C08616970609F44F2D2F5FE22FF0E03F
:104B9000EE0FFF1F6E897F89E60FF71F608171811D
:104BA0006115710571F73F5FD7CF4423D1F0F8014C
:104BB000231708F0FD0121E024830E171F0721F4BD
:104BC0009093BD02F42E3BCF981305C0AE17BF07DC
:104BD00011F49F5F937093012F5F3F4F822F83707B
:104BE0008CCFF0E0E0E0F7CF90E0E1101FC0B10122
:104BF00002C0660F771F2A95E2F79B012150310909
:104C00008217930731F4442309F447C0C5010E9479
:104C1000A105C10101C0880F8A94EAF7982F9095E9
:104C2000F801868189238683FE2C09CF9C01082CFC
:104C300002C0359527950A94E2F7A90141705527DE
:104C4000BC016150710986239723892B11F5452BEF
:104C500001F1F80182819381892BC1F01B821C82B2
:104C60001D821E8249824A820E9438058160582F27
:104C70009D838C83F801828193818F83988729811A
:104C80003A814B816D817E810E949022F8011582CC
:104C9000C0CFF22FF170EF2EBCCFEF2CBACF909196
:104CA000BD028091BE02981731F00E946523552005
:104CB00009F433CE02CF0E9407231092C002109253
:104CC000BF020E94CF05F3CF82E00E94620A07CEA6
:104CD000CF93DF9300D000D00F92CDB7DEB7909383
:104CE000EF018093EE01811520E2920748F40F90C6
:104CF0000F900F900F900F90DF91CF910C947B0B42
:104D00008EEF89838A831B820E9438058160782F09
:104D10009D838C8349815A816B818D810F900F9087
:104D20000F900F900F90DF91CF910C940F24CF93A1
:104D3000DF9300D000D00F92CDB7DEB79093EF0194
:104D40008093EE01811520E2920748F40F900F90B6
:104D50000F900F900F90DF91CF910C94930B8EEFEB
:104D600089838A8381E08B830E9438058160782F54
:104D70009D838C8349815A816B818D810F900F9027
:104D80000F900F900F90DF91CF910C940F24BF9252
:104D9000CF92DF92EF92FF920F931F93CF93DF9307
:104DA000B82EC090AD038091AC03C82AC7E0D0E014
:104DB000D12CF12CE12CD701C6010C2E04C0B695E4
:104DC000A795979587950A94D2F780FF1FC04B2D22
:104DD00060E08C2F0E9463128C0181309105B1F04C
:104DE0000E9497268FE39CE90197F1F700C000002D
:104DF000C8010E94682681E0DF91CF911F910F9139
:104E0000FF90EF90DF90CF90BF900895219798F694
:104E10004B2D60E080E00E946312EC010E94972617
:104E20008FE39CE90197F1F700C00000CE01E1CFCC
:104E30009F92AF92BF92CF92DF92EF92FF920F9329
:104E40001F93CF93DF9300D0CDB7DEB71A821982BC
:104E500089EBE82E80E0F82E10E000E0CC24C3942B
:104E6000D12C22ECA22E20E0B22EF70181917F01FD
:104E70008F3F09F445C0F894E82FE295EF70F0E019
:104E800021A98F70A60102C0440F551F8A95E2F731
:104E9000CA01922F982B91AB92A98095892382AB5E
:104EA000789400C0EBEBF0E0912C31E021912F3FA2
:104EB00009F45DC0A22FA295AF70B0E0D0968C919E
:104EC00090E02F7002C0959587952A95E2F780FDB6
:104ED0004EC0832F982A330FAE16BF0639F7F7015D
:104EE000319780818F3F11F00E94180750EA5A9540
:104EF000F1F7E1E0F0E0EC0FFD1FE00FF11F908211
:104F00000130110589F542E050E0BE016F5F7F4F2F
:104F10008FE591E00E94DC2F11E0009709F410E08A
:104F2000892B39F189819A819093600180935F0187
:104F300081E080935E010E94380590935D0180932B
:104F40005C0180915C0190915D010E9429050597AB
:104F5000A0F080915F018093750180916001809342
:104F6000760110925E0109C001E010E07ECF80E082
:104F7000B1CF80915E018111E4CF812F0F900F900E
:104F8000DF91CF911F910F91FF90EF90DF90CF9025
:104F9000BF90AF909F90089590E080E00E941730FE
:104FA000893E9E4F11F40C94571380E00895789435
:104FB0001F921FB61F9211248F939F93AF93BF939D
:104FC0008091EE029091EF02A091F002B091F10277
:104FD0000196A11DB11D8093EE029093EF02A09364
:104FE000F002B093F102BF91AF919F918F911F900A
:104FF0001FBE1F901895CDB7DEB76A970FB6F8940D
:10500000DEBF0FBECDBF0E9438059093790180931B
:10501000780184B7806884BF84B7806884BF86E1E4
:1050200097E09093F9008093F8000E94C3150E94C6
:105030003E1285B7886085BF8BB780688BBF8BE4D5
:105040008093BB038093F0038093C7038AE580932A
:10505000BA038093EF038093C6038B9A80E081505C
:1050600009F0FCC08B9878948BE083BF8AEF8CBFEB
:1050700082E089BF0E945713811102C00E943B1534
:1050800082E30E94180783E30E9418070BEB10E0ED
:1050900062ECE62E60E0F62EF80181918F018F3FE1
:1050A00011F00E941807E016F106B1F71092760190
:1050B000109275011092600110925F010E94CC273E
:1050C000811102C00E94991782E090E00E9409308D
:1050D000809362010E9470139093F3018093F20118
:1050E0000E9418278FE39CE90197F1F700C00000A8
:1050F0000E9418278091750180FF08C06FEF7FEF35
:1051000090E080E00E943A300E94160583E090E033
:105110000E9409300E949F0A80916101811133C071
:105120000E94CC27811104C00E9499170E948A17FF
:1051300088E090E00E94113060939701709398018D
:105140008093990190939A016E7F71F40E948A175F
:1051500088E090E00E94113060939701709398016D
:105160008093990190939A010E9471061092810197
:105170008091970180FF04C060E086950E94271708
:1051800081E080936101B998C19AB898C09A8FE87C
:1051900091E00197F1F700C0000086B38695817019
:1051A000B09964C090E0892B80936F0180E690E015
:1051B0009093EB028093EA029FEFE0E7F2E09150D8
:1051C000E040F040E1F700C000009E012F5F3F4F3C
:1051D000690142E3442E512C66246394712C809122
:1051E000D50310917701882309F442C01092D503AA
:1051F0000E9438059093790180937801112309F476
:1052000003C5109277010E946F140E948A05809155
:105210007701882309F4F8C40E941827809175014A
:1052200090917601892BD9F2F89421B3939A822F29
:105230008C6081BB92B33CE0932792BB4FE758E36D
:1052400081E0415050408040E1F700C0000082B34F
:10525000832782BB21BB93987894C1CFA895EFE9AF
:10526000FFE03197F1F700C00000F9CE92E09BCF4C
:105270001111D2CF80917801909179010E94290576
:10528000069708F4C1C481E080937701C5CF20E080
:1052900010E000E0F9C48F5FFF0C873009F0EDC427
:1052A0008FEF888B898B1A8A0E9438058160782F4E
:1052B0009C8B8B8B488959896A898C890E940F2421
:1052C000FCC40E9407231092C0021092BF020E94E9
:1052D000CF0517C5863059F4F0E0E15FFE4FE49149
:1052E0000E2F10E02BECE22E2EE0F22E45C5893079
:1052F00061F4E695F0E0E45FFE4FE4910E2F10E0DC
:1053000097E3E92E9EE0F92E37C58F3061F4E695DC
:10531000F0E0E75FFE4FE4910E2F10E089ECE82EFD
:105320008DE0F82E29C5853159F4F0E0EA5FFE4F93
:10533000E4910E2F10E0BBE7EB2EBDE0FB2E1CC569
:1053400008E210E0E2EFEE2EECE0FE2E883109F4E8
:1053500013C5833249F4E4E0F1E005911491A2E72A
:10536000EA2EAEE0FA2E08C504EF11E0F9EBEF2EBD
:10537000FCE0FF2E843209F4FFC400ED17E071E178
:10538000E72E75E0F72EF8C482E090E028C58B3058
:1053900009F438C2B8F5853009F4CCC0F0F4823095
:1053A00009F481C028F4813009F477C08FEF01C47B
:1053B000833009F4ABC08430C9F740918F0360910A
:1053C0008E0380918D030E948C129827892798273D
:1053D000909391038093900385C0873009F4BDC0FA
:1053E00008F4B8C0883009F400C18930F9F660913A
:1053F0009701709198018091990190919A010E9472
:105400001C1670C0803109F449C1D8F58D3009F4FB
:1054100012C108F40CC18E3009F412C18F3031F67C
:105420008091EC019091ED01892B09F45BC0E09033
:105430008F03F12C3DE1E316F10408F053C0009115
:105440008D0310918E031027012710275CE8A52EED
:1054500053E0B52EE00EF11EC801855E9E4F0E157D
:105460001F0509F43FC0053E42E0140720F4F50192
:1054700064810E941D30FFEFAF1ABF0A0F5F1F4FFC
:10548000EBCF823109F40FC108F40BC1833109F469
:1054900036C18E3F09F08ACF11C510928D0389E085
:1054A00080938E031FC080918D03823009F4A1C3C5
:1054B0008330E9F0813009F079CF2FB7F89460910B
:1054C000EE027091EF028091F0029091F1022FBFF5
:1054D0000E94A42F60938E0370938F038093900398
:1054E000909391030E94921110927A0378CE80914A
:1054F000EC019091ED01892BA9F3809175018093C6
:105500008E038091760180938F03ECCF80918D0381
:10551000823009F04BCF60918E0370918F038091A0
:105520009003909191030E94A42F86E290E00E9444
:105530001D30D8CF2091900330919103322723273B
:10554000322740918F0360918E0380918D030E94DA
:105550000014C8CF0E94A814C5CF80918D03813854
:10556000D9F068F4803809F0BDCF20E040918E0377
:1055700060919901809198010E942E16B3CF8238D4
:1055800079F1833809F0AECF20E040919A01609123
:105590008F0380918E03F0CF60E080918E030E9494
:1055A000271790918E0380919701911111C08E7FE2
:1055B00080939701109281013FEF40E752E0315014
:1055C00040405040E1F700C000000E94840C8ACFA8
:1055D00081608093970160E086950E94271782CFB3
:1055E00080918E0380939B017DCF80918D038138C4
:1055F00099F030F4803809F075CF80919A0150CF3E
:10560000823891F0833809F06DCF809198018093B2
:105610008E038091990177CF8091970180FF02C01E
:1056200086953ECF80E03CCF80919B0139CF80E1D1
:1056300080938D0357CF82E080938D0385EE30CF2A
:1056400000918F0310E00D31110508F04BCFE09071
:105650008D03F0908E03FE24EF24FE246CE8A62E2A
:1056600063E0B62E04571C4FC701855E9E4FA016FF
:10567000B10609F437CFE5EEEE16E2E0FE0658F487
:105680000E940930F5018483FFEFEF1AFF0A2FEF24
:10569000A21AB20AE9CFF5011482F6CF0E94CB1309
:1056A00021CF84E0C5CF00918F0310E00D311105AB
:1056B00008F018CFE0908D03F0908E03FE24EF24C5
:1056C000FE244CE8A42E43E0B42E04571C4FC7011F
:1056D0008796A016B10609F405CF20E7E216F1047B
:1056E00058F40E940930F5018483FFEFEF1AFF0A96
:1056F0002FEFA21AB20AEBCFF5011482F6CFE09099
:105700008F03F12C3DE1E316F10408F0EBCE00919C
:105710008D0310918E0310270127102700371105E4
:1057200008F0E0CE80E790E0801B910B8E159F057E
:1057300008F4D8CEA801495D5F4F5A8F498F8091F8
:10574000EC019091ED011701200E311E892BB9F566
:10575000580151E0A522BB2400FF0FC0C801869666
:105760000E940930909190038927982789278115F5
:105770009C4519F48FEF80939003470120FE18C0D9
:10578000F1E08F1A9108940120573C4F388F2F8BEE
:10579000898D9A8D8E0D9F1D0E940930EF89F88D9D
:1057A000908181159C4521F48FEFEF89F88D8083DE
:1057B000F501E457FC4F2FEFA814B90428F03CE89A
:1057C000E32E33E0F32E18C09481858181159C452A
:1057D00011F42483258342E0A40EB11C3296ECCF51
:1057E0000037110520F4F70164810E941D30FFEF9E
:1057F000EF1AFF0A0F5F1F4FC80187962016310668
:1058000079F770CE8091EC019091ED01892B09F42C
:1058100069CE0E9492112FEF31EE44E021503040CA
:105820004040E1F700C000000E9416055BCE88E012
:10583000E0E8F0E0D60101900D928A95E1F780E270
:10584000ECE8F3E011928A95E9F785E080938C0308
:1058500088E0F601A0E9B3E001900D928A95E1F7A6
:1058600041CE80EF80938C0310928D0310928E03B3
:1058700010928F0337CE80918F03682F70E0762FC0
:10588000662780918E03860F972F911D092E000C9D
:10589000AA0BBB0B25E0880F991FAA1FBB1F2A95D7
:1058A000D1F7AC01BD01405E5F4F6F4F7F4F48178E
:1058B00059076A077B0708F415CE803F9105A105BB
:1058C000B10508F00FCE413F51056105710520F08B
:1058D00040EF50E060E070E0481B590BBC016A5E8D
:1058E0007E4F8CE893E00E94C62FFCCD10918E0372
:1058F00000918F0340E0602F812F0E946312982750
:105900008927982790938D0380938C0341E0602F23
:10591000812F0E94631298278927982790938F03DD
:1059200080938E03DFCD2091910330919203322733
:10593000232732272115FCE53F0741F48091EC0134
:105940009091ED01892B11F430E020E0409190031B
:1059500060918F0380918E030E94DB13C3CD4AE1D7
:1059600050E06FEF70E082E993E00E94F22F8091A7
:10597000EC0180938C0300938D0310928E031092A0
:105980008F0381E08093900380939103ABCD70925D
:10599000F1016092F00150927401409273010E94F3
:1059A000380590937201809371019CCD012B51F1C8
:1059B00010917501009176018091710190917201B1
:1059C0000E9429058536910540F101FF26C010FF90
:1059D00024C00E94380590937201809371018091D8
:1059E00073019091740101979093740180937301F6
:1059F000892B41F41092F1011092F0017092ED01A7
:105A00006092EC018091EC0180938C038091F00115
:105A100080938D038091730143CD50927401409225
:105A20007301F0CF1092ED011092EC015BCD00916B
:105A30008E0310918F0340E250E06FEF70E08CE82E
:105A400093E00E94F22F23E534E090E080E0AC0187
:105A50004E5F5F4F4132510508F044CDF901659129
:105A600074910617170730F484579C4FFC0171831B
:105A70006083CA01245F3F4FF4E0233E3F0739F7BC
:105A800031CD20918E0330918F0383E594E0FC01AA
:105A9000459154912417350709F47DC00C9643EEC7
:105AA00054E04817590799F781CC80918E03909163
:105AB0008F0303E514E0F801259134912817390785
:105AC00009F47AC0045F1F4FF4E0033E1F0799F703
:105AD000EE24EA94FE2C8AC00E947A1403CD8091B1
